:020000040000FA
:100000000C9472000C949A000C949A000C949A0030
:100010000C949A000C949A000C949A000C949A00F8
:100020000C949A000C949A000C949A000C949A00E8
:100030000C949A000C949A000C949A000C949A00D8
:100040000C949C070C949A000C949A000C949A00BF
:100050000C949A000C949A000C949A000C949A00B8
:100060000C94E6070C949A0000000000240027007E
:100070002A0000000000250028002B0000000000DE
:1000800023002600290004040404040404040202DA
:100090000202020203030303030301020408102007
:1000A0004080010204081020010204081020000012
:1000B0000008000201000003040700000000000027
:1000C000000031313A34393A3034004A756E20310B
:1000D000382032303234001F1C1F1E1F1E1F1F1EEF
:1000E0001F1E120911241FBECFEFD8E0DEBFCDBF07
:1000F00022E0A2E7B1E001C01D92AA35B207E1F704
:1001000011E0A0E0B1E0E0EDFBE102C005900D924E
:10011000A237B107D9F710E0C2E7D0E004C02197B9
:10012000FE010E94BB0CC137D107C9F70E943209FA
:100130000C94E60D0C94000008950895AF92BF92C0
:10014000CF92DF92EF92FF920F931F93CF93DF93A3
:100150006C017B018B01040F151FEB015E01AE18D2
:10016000BF08C017D10759F06991D601ED91FC91F4
:100170000190F081E02DC6010995892B79F7C50121
:10018000DF91CF911F910F91FF90EF90DF90CF9073
:10019000BF90AF900895833081F028F4813099F0BA
:1001A0008230A9F008958730A9F08830C9F08430F2
:1001B000B1F4809180008F7D03C0809180008F77A3
:1001C00080938000089584B58F7784BD089584B5A9
:1001D0008F7DFBCF8091B0008F778093B000089522
:1001E0008091B0008F7DF9CFCF93DF93282F30E03F
:1001F000F901E255FF4F8491F901E656FF4FD49182
:10020000F901EA57FF4FC491CC23A1F081110E945C
:10021000CB00EC2FF0E0EE0FFF1FE458FF4FA5914D
:10022000B491EC91ED2381E090E009F480E0DF915E
:10023000CF91089580E090E0FACF1F93CF93DF93A2
:10024000282F30E0F901E255FF4F8491F901E6567D
:10025000FF4FD491F901EA57FF4FC491CC23A9F085
:10026000162F81110E94CB00EC2FF0E0EE0FFF1F44
:10027000EE58FF4FA591B4918FB7F894EC911111FE
:1002800008C0D095DE23DC938FBFDF91CF911F9103
:100290000895DE2BF8CFCF93DF9390E0FC01E65674
:1002A000FF4F24918A579F4FFC0184918823D1F0FE
:1002B00090E0880F991FFC01E859FF4FA591B49178
:1002C000FC01EE58FF4FC591D491623071F49FB795
:1002D000F8943C91822F809583238C93E8812E2B78
:1002E00028839FBFDF91CF9108958FB7F894EC9149
:1002F0002E2B2C938FBFF6CF3FB7F8948091BB0184
:100300009091BC01A091BD01B091BE0126B5A89B02
:1003100005C02F3F19F00196A11DB11D3FBFBA2F97
:10032000A92F982F8827BC01CD01620F711D811D57
:10033000911D42E0660F771F881F991F4A95D1F7DC
:1003400008958F929F92AF92BF92CF92DF92EF92D9
:10035000FF924B015C010E947C016B017C010E94B9
:100360007C016C197D098E099F09683E73408105E7
:100370009105A8F321E0821A9108A108B10888EE3E
:10038000C80E83E0D81EE11CF11C81149104A10465
:10039000B10429F7FF90EF90DF90CF90BF90AF901E
:1003A0009F908F900895089520919301260F3327F1
:1003B000331F21323105ECF420911402FC0190E04E
:1003C00080E0243069F082E00895A09193012191AA
:1003D000AC014D585E4FA40FB52FB11D2C93019663
:1003E000861798F380919301680F6093930180E0E2
:1003F000089581E008951092140281E08093130221
:100400001092EE0161E082E10E941D0161E083E152
:100410000E941D01E9EBF0E080818E7F8083808166
:100420008D7F808388E48093B80085E48093BC004E
:1004300008951092CD011092CC0110921B021092DF
:100440003D020E94FB018CE990E09093C9018093EA
:10045000C8018DE990E09093C7018093C60108958B
:10046000CF93DF9391E0909372018823B9F0C0910C
:10047000B800D091BA008091BC008A7B8093BC0008
:1004800060E082E10E941D0160E083E10E941D01A5
:100490000E94FB01D093BA00C093B800DF91CF91C6
:1004A00008958F929F92AF92BF92CF92DF92EF9278
:1004B000FF920F931F93CF93DF93D0913D02D132E0
:1004C00008F0D7C0182FC0913C020E947C016B013C
:1004D0007C018091140281116BC082E08093140230
:1004E000109313028FEF8093120210921102D09397
:1004F0001002ACE1B2E0E0EFF1E080E0D81391C08F
:100500001092EF018091EF01CC0FC82BC093EF0147
:100510008091EE01813009F088C01092EE010E94B6
:100520007C016B017C018091EF018093BB00809185
:10053000160290911702A0911802B0911902892B0E
:100540008A2B8B2BA1F00E947C0100911602109146
:10055000170220911802309119026C197D098E0939
:100560009F09061717072807390708F442C080912A
:10057000BC0083FDD8CF85EC8093BC000E947C0139
:100580006B017C0180911402823009F450C080918B
:1005900012028F3F09F46FC080911202803209F479
:1005A0006CC080911202803309F469C084E026C0D7
:1005B0008091160290911702A0911802B091190231
:1005C000892B8A2B8B2B09F484CF0E947C0180908D
:1005D000160290901702A0901802B09019026C19A0
:1005E0007D098E099F0986169706A806B90608F0A8
:1005F00070CF809115020E94300285E010921B029C
:1006000010923D0210921A02DF91CF911F910F912B
:10061000FF90EF90DF90CF90BF90AF909F908F9022
:1006200008959D9191938F5F69CF85EEA5CF8091BD
:10063000160290911702A0911802B0911902892B0D
:100640008A2B8B2B09F49ECF0E947C01009116020D
:100650001091170220911802309119026C197D092E
:100660008E099F09061717072807390708F08ACF50
:10067000C0CF81E0C3CF80E0C1CF82E0BFCF83E0B5
:10068000BDCFCF93DF93EC018B818823A1F08881CC
:1006900091E090931A0280933C0210921B021092F8
:1006A0003D0281E00E94510291E0811190E0892F8A
:1006B000DF91CF9108950E94190281E08B83CE01D2
:1006C0000E944103982F8111E2CFF1CF0895E0916C
:1006D000CD018091CC01E81730F4F0E0E253FE4FF9
:1006E000808190E008958FEF9FEF08959091CD0164
:1006F0008091CC012FEF3FEF981748F4E92FF0E0FD
:10070000E253FE4F208130E09F5F9093CD01C901FD
:1007100008958091CC019091CD01891B990B08958A
:10072000CF92DF92EF92FF920F931F93CF93DF93BD
:100730007C01CB018A0120911A02222389F0EB016E
:100740006B01C40ED51ECC15DD0569F06991D7018A
:10075000ED91FC910190F081E02DC7010995F3CF57
:10076000642F0E94D401C801DF91CF911F910F9196
:10077000FF90EF90DF90CF900895CF93DF931F927B
:10078000CDB7DEB7698320911A022223F9F02091B8
:100790003D02203258F021E030E0FC013383228317
:1007A00090E080E00F90DF91CF91089580911B023F
:1007B000E82FF0E0E45EFD4F998190838F5F809396
:1007C0001B0280933D0281E090E0ECCF61E0CE011E
:1007D00001960E94D401F7CFFC01248131E03093CF
:1007E0001A0220933C0210921B0210923D02838554
:1007F000682B8EE392E00E94BD0381E00C945102CD
:1008000090E080E008951F93CF93DF93DC0114966E
:10081000ED91FC91E417F50710F490E01FC0122F42
:10082000EA01FC0181819281208131E030931A023A
:1008300020933C0210921B0210923D02DC01ED91CC
:10084000FC910280F381E02D0995C817D90729F79B
:10085000812F0E94510291E08111DFCF892FDF911A
:10086000CF911F9108952F923F924F925F926F9276
:100870007F928F929F92AF92BF92CF92DF92EF9230
:10088000FF920F931F93CF93DF935C011B016A01CB
:10089000F12CE12CD50114968D919C9186010E19B5
:1008A0001F098017910708F48C01F501D0810E947F
:1008B0007C012B013C0180911402811172C0C02F78
:1008C000013208F0C0E2F1E0F093140221E0C60129
:1008D000801B910BE816F90608F420E02093130220
:1008E0008FEF80931202109211028C0F80931002EE
:1008F000A1E0A093EF018091EF01DD0FD82BD09301
:10090000EF018091EE01813009F090C01092EE016C
:100910000E947C012B013C018091EF018093BB0080
:100920008091160290911702A0911802B0911902BD
:10093000892B8A2B8B2BA1F00E947C01209116021F
:1009400030911702409118025091190264197509EB
:1009500086099709261737074807590708F442C040
:100960008091BC0083FDD8CFB5ECB093BC000E9451
:100970007C012B013C0180911402813009F45AC0A2
:10098000809111028C1710F4C0911102A0EFB1E018
:10099000EEECF1E080E08C1751F19D9191938F5F27
:1009A000FACF8091160290911702A0911802B0918F
:1009B0001902892B8A2B8B2B09F47DCF0E947C0195
:1009C000209116023091170240911802509119029D
:1009D00064197509860997092617370748075907C3
:1009E00008F069CF809115020E943002C0E0109299
:1009F000CD01C093CC01C017110609F057C04101C9
:100A00008E0C9F1CE401CE0188199909801791076B
:100A100098F5D50111968D919C91DC01ED91FC9199
:100A20000284F385E02D09958993EDCFE5EEE093FF
:100A3000BC009DCF8091160290911702A0911802E0
:100A4000B0911902892B8A2B8B2B09F494CF0E9429
:100A50007C012091160230911702409118025091AA
:100A60001902641975098609970926173707480777
:100A7000590708F080CFB6CFE00EF11EEC14FD044C
:100A800008F408CF81E0DF91CF911F910F91FF9083
:100A9000EF90DF90CF90BF90AF909F908F907F901E
:100AA0006F905F904F903F902F90089580E0EBCF34
:100AB000CF93DF9300D0CDB7DEB78FE08A8321E0FC
:100AC00041E050E0BE016E5F7F4F8091CA0190917E
:100AD000CB010E94030441E050E0BE016F5F7F4FF5
:100AE0008091CA019091CB010E94330489810F90BB
:100AF0000F90DF91CF9108951F93CF93DF93CDB7E0
:100B0000DEB72A970FB6F894DEBF0FBECDBFFC014B
:100B10001A82198235812AE0832F622F0E94650C88
:100B2000982F880F890F880F830F8A833481832F32
:100B30000E94650C982F880F890F880F830F8B8375
:100B40003381832F0E94650C982F880F890F880F9F
:100B5000830F8C83128131812081422F50E0612FDD
:100B600070E0E7EDF0E081E0831730F49491690FD5
:100B7000711D8F5F3196F8CF333028F0822F83704C
:100B800011F46F5F7F4FEDE6F1E04E9FC0014F9F84
:100B9000900D5E9F900D112405964D5F5F4F569509
:100BA000479556954795840F951F860F971F67E0C9
:100BB00070E00E94710C811101C087E08D834AE0D2
:100BC000812F642F0E94650C982F880F890F880F42
:100BD000810F8E83832F0E94650C982F880F890FB9
:100BE000880F830F8F83822F0E94650C982F880FA8
:100BF000890F880F820F888721E048E050E0BE010E
:100C00006F5F7F4F8091CA019091CB010E940304D6
:100C10000E9458059FE099878F778A8721E042E0FC
:100C200050E0BE01675F7F4F8091CA019091CB0178
:100C30000E9403042A960FB6F894DEBF0FBECDBF04
:100C4000DF91CF911F9108950F931F93CF938C0144
:100C5000C62F0E94EC036C2F6460C8010E94EC0355
:100C60006C2F6B7FC8010E94EC0383EC90E001972E
:100C7000F1F7CF911F910F9108950F931F93CF9389
:100C8000DF938C01D62FC42F607F642B0E94240633
:100C900080E1D89FB00111246C2BC801DF91CF9166
:100CA0001F910F910C942406CF93DF93CDB7DEB73D
:100CB00028970FB6F894DEBF0FBECDBF98E0E8E0EE
:100CC000F1E0DE01119601900D929A95E1F7909175
:100CD0005202961708F46FEF262F30E0220F331FD1
:100CE00041E050E04C0F5D1F240F351FF90160817A
:100CF000680F606840E08AE492E028960FB6F894A6
:100D0000DEBF0FBECDBFDF91CF910C943D0641E019
:100D10000E943D0681E090E008958F929F92AF92ED
:100D2000BF920F931F93CF93DF93CDB7DEB7A197F9
:100D30000FB6F894DEBF0FBECDBF19A2423008F443
:100D40004AE08E010F5D1F4F842E912CB12CA12CF7
:100D5000A50194010E94990CE62FB901CA01EA305D
:100D600044F5E05DD801EE938D01232B242B252B38
:100D700079F790E080E0109769F0FD010190002084
:100D8000E9F73197AF014A1B5B0BBD018AE492E0A2
:100D90000E949E00A1960FB6F894DEBF0FBECDBF95
:100DA000DF91CF911F910F91BF90AF909F908F9047
:100DB0000895E95CD7CFCF92DF92EF92FF926C015A
:100DC000990FEE08FF08F7FE16C041E06DE28AE4D5
:100DD00092E00E943D0666277727CB016C197D09BA
:100DE0008E099F094AE00E948D060196FF90EF90C0
:100DF000DF90CF9008954AE0C701B601FF90EF90D1
:100E0000DF90CF900C948D06FC0101900020E9F753
:100E10003197AF01481B590BBC018AE492E00C9456
:100E20009E004091C4015091C50120910001309174
:100E30000101882381F14B3351053CF44F5F5F4F33
:100E40005093C5014093C40112C01092C501109285
:100E5000C401273131053CF42F5F3F4F309301012E
:100E60002093000104C0109201011092000161E082
:100E70008AE00E94540680910001909101010E9435
:100E8000DB0686E691E00E9404078091C401909100
:100E9000C5010C94DB06141615061CF441505109CB
:100EA000CFCF8BE390E09093C5018093C4011216DD
:100EB00013061CF421503109D1CF87E190E09093C3
:100EC000010180930001D3CF85ED8093BC00809118
:100ED000160290911702A0911802B091190207967C
:100EE000A11DB11D23E0B695A795979587952A95E5
:100EF000D1F72091BC0024FD03C010921402089584
:100F000040911602509117026091180270911902D7
:100F1000452B462B472B69F30097A105B10541F0FE
:100F200025E32A95F1F700000197A109B109E1CF66
:100F3000809115020C9430021F920F920FB60F92FF
:100F400011242F933F938F939F93AF93BF938091DF
:100F5000B7019091B801A091B901B091BA01309157
:100F6000B60123E0230F2D3758F50196A11DB11DC1
:100F70002093B6018093B7019093B801A093B90173
:100F8000B093BA018091BB019091BC01A091BD01C9
:100F9000B091BE010196A11DB11D8093BB0190933C
:100FA000BC01A093BD01B093BE01BF91AF919F91D1
:100FB0008F913F912F910F900FBE0F901F9018951A
:100FC00026E8230F0296A11DB11DD2CF1F920F92CA
:100FD0000FB60F9211242F933F934F935F936F930C
:100FE0007F938F939F93AF93BF93EF93FF938091E2
:100FF000B900887F803609F44AC0F0F5883209F4D8
:10100000A7C018F5803109F49BC0B8F4882309F40F
:10101000F9C0883009F494C0FF91EF91BF91AF916E
:101020009F918F917F916F915F914F913F912F9100
:101030000F900FBE0F901F901895883109F488C04B
:10104000803251F78093120214C0803409F49DC09D
:1010500040F48033B9F38833F9F68093120285ECBB
:10106000B0C0803509F485C0883509F496C088344D
:1010700099F60E946407D0CF883909F48CC038F5FE
:10108000883729F050F4883611F0803729F683E04C
:10109000809314021092B50157C0883809F47BC0C0
:1010A000803919F0803809F0B7CF8091B5018032CE
:1010B00008F071C0E091B50181E08E0F8093B50119
:1010C0008091BB00F0E0EB56FE4F80833DC0803B3B
:1010D00039F0E0F4803A09F479C0883A09F09CCFFD
:1010E00084E0809314021092940110929301E09195
:1010F000C801F091C90109958091930181110FC038
:1011000081E0809393011092730109C0803C09F43F
:10111000A6CF883C09F4A3CF883B09F07DCFE091AE
:10112000940181E08E0F80939401F0E0ED58FE4F22
:1011300080818093BB00909194018091930129C09C
:101140008091EF018093BB0085EC8093BC0064CF5D
:101150009091110280911002981758F5E0911102B8
:1011600081E08E0F80931102F0E0E051FE4F80810C
:10117000E9CFE091110281E08E0F809311028091FE
:10118000BB00F0E0E051FE4F80839091110280910E
:1011900010029817C8F285E8D8CFE091110281E0DB
:1011A0008E0F809311028091BB00F0E0E051FE4F62
:1011B00080838091130281115CCF81E08093EE01E6
:1011C00084EA8093BC001092140226CF85EC8093B1
:1011D000BC00109214028091B501803230F4E0918D
:1011E000B501F0E0EB56FE4F10826091B50170E062
:1011F000E091C601F091C70185E991E0099510924F
:10120000B5010ACF1092120234CFFC0190819053A5
:101210009A3008F090E0818180532AE0929F800DFF
:1012200011240895EEE3F2E01382128288EE93E037
:10123000A0E0B0E084839583A683B78384E191E046
:1012400091838083EAE4F2E01382128286E291E0E5
:101250009183808387E2848380E1818782E0828733
:1012600013860895CF93DF93CDB7DEB761970FB69E
:10127000F894DEBF0FBECDBF789484B5826084BD84
:1012800084B5816084BD85B5826085BD85B581608A
:1012900085BD80916E00816080936E001092810008
:1012A00080918100826080938100809181008160C3
:1012B0008093810080918000816080938000809184
:1012C000B10084608093B1008091B0008160809310
:1012D000B00080917A00846080937A0080917A00D7
:1012E000826080937A0080917A00816080937A0096
:1012F00080917A00806880937A001092C1000E94E9
:10130000190210924F0280915402823018F098E036
:1013100090934F028093520262E370E080E090E08D
:101320000E94A101609155028AE492E00E94EC03C0
:1013300068EE73E080E090E00E94A10160E38AE43F
:1013400092E00E9424060BE416E4C8010197F1F72D
:1013500060E38AE492E00E942406C8010197F1F755
:1013600060E38AE492E00E94240683E592E001971C
:10137000F1F760E28AE492E00E94240660914F0255
:10138000606240E08AE492E00E943D0684E080933F
:10139000500240E06CE08AE492E00E943D0640E0AA
:1013A00061E08AE492E00E943D060BE31FE1C80180
:1013B0000197F1F782E08093510240E066E08AE411
:1013C00092E00E943D0640E062E08AE492E00E94E2
:1013D0003D06C8010197F1F788E08093550260E06F
:1013E0008AE492E00E94EC0360E080E00E945406F0
:1013F0008EE291E00E9404078091CA019091CB0196
:10140000009711F00E945D0D86E090E00E94C10CF3
:101410008C0188E6F80180838EE392E092838183D9
:10142000138280E290E0958384831093CB01009334
:10143000CA010E94190281E0F8018383C8010E9459
:101440004103811108C061E00E9454068AE391E0E3
:101450000E940407FFCF0E94580590E0880F892F53
:10146000881F990B892B09F45DC061E080E00E9420
:10147000540688E491E00E9404074BE050E06BECD6
:1014800070E0CE0101960E945C0CCE010A960E948B
:1014900005098C87E981E154E33120F50E2E000C1B
:1014A000FF0BEB5AF54F0C94BB0CF10B720A720A4E
:1014B000050C720AEF0B720A720A720A680A720A43
:1014C000720AF80B030C010C720A720A720AFF0B03
:1014D0008A81813609F47FC18B818E3609F07DC106
:1014E00086E08D87CE0105960E9405098E8748E02B
:1014F00050E062EC70E0CE0101960E945C0CCE01DF
:1015000001960E9405098F87CE0104960E94050965
:10151000888BCE0107960E940509898BCE010C9617
:101520000E947C0562E082E00E944B0162E083E061
:101530000E944B0162E084E00E944B0162E085E082
:101540000E944B0161E088E00E944B0160ED77E072
:1015500080E090E00E94A10140E061E08AE492E036
:101560000E943D068BE39FE10197F1F75CE3E52ED6
:10157000F12C68E1C62ED12C70E0A72E70E0B72EBA
:10158000E8E19E2EF6E08F2EA2E17A2E19820091DC
:10159000CA011091CB0120E041E050E0BE016F5F35
:1015A0007F4FC8010E940304882341F047E050E0C8
:1015B000BE016F5F7F4FC8010E94330469816F775E
:1015C000862F90E024E0959587952A95E1F7982F4E
:1015D000990F990F182F191B110F160F2A81822F9F
:1015E00090E034E0959587953A95E1F7982F990F1B
:1015F000990F082F091B000F020F2B81822F90E0FB
:1016000044E0959587954A95E1F7982F990F990FA2
:10161000682E691A660C620E60E080E00E94540633
:1016200087E591E00E940407662D70E090E080E07D
:101630004AE00E948D0686E691E00E940407602F32
:1016400070E090E080E04AE00E948D0686E691E03E
:101650000E940407612F70E090E080E04AE00E9461
:101660008D06809100019091010168161906A9F478
:101670008091C4019091C5010817190671F461E0C9
:1016800088E00E941D0168EE73E080E090E00E9417
:10169000A10160E088E00E941D0182E00E94F40048
:1016A000892B61F48091C30191E089278093C30164
:1016B00064EF71E080E090E00E94A1018091C3019D
:1016C00061E0882309F4C9C080E00E9454068EE5D9
:1016D00091E00E94040784E00E94F400892BC1F489
:1016E00082E00E94F400892B09F091C08091C10131
:1016F0009091C2010196B6010E94850C9093C2019F
:101700008093C10164EF71E080E090E00E94A1014C
:1017100085E00E94F400892BC9F40091C101109169
:10172000C20182E00E94F400892B09F083C0C80145
:101730004796B6010E94850C9093C2018093C10127
:1017400064EF71E080E090E00E94A10161E08AE036
:101750000E9454068091C1019091C2010E94DB0653
:1017600086E691E00E9404078091BF019091C0013C
:101770000E94DB068091C301882301F182E00E9470
:10178000F400892BD9F483E00E94F400892BB1F492
:101790008091BF019091C10199828A827B829C8352
:1017A0008D831E82CE0101960E947C051092C3019A
:1017B00064EF71E080E090E00E94A10168EE73E0C8
:1017C00080E090E00E94A101A114B10409F4DECEF2
:1017D0000E940000DBCE81E084CE87E082CE82E0F2
:1017E00080CE8B81823711F484E07BCE88E079CE85
:1017F0008B81823711F483E074CE85E072CE89E06C
:1018000070CE8AE06ECE8BE06CCE8CE06ACE83E048
:101810000E94F400892B09F075CF8091BF0190914F
:10182000C0010196B7010E94850C9093C00180937E
:10183000BF0168CF83E00E94F400892B09F080CFBC
:101840008091BF019091C001CB96B7010E94850C99
:101850009093C0018093BF0173CF80E00E94540633
:1018600088E691E00E9404078091000190910101B7
:101870000E94DB0686E691E00E9404078091C40185
:101880009091C5010E94DB0684E00E94F400892B40
:1018900049F481E00E94110764EF71E080E090E07C
:1018A0000E94A10185E00E94F400892B09F086CFF7
:1018B00080E00E9411077CCFFB01DC0102C0059093
:1018C0000D9241505040D8F70895991B79E004C01B
:1018D000991F961708F0961B881F7A95C9F780956F
:1018E0000895AA1BBB1B51E107C0AA1FBB1FA61767
:1018F000B70710F0A61BB70B881F991F5A95A9F7B9
:1019000080959095BC01CD01089597FB072E16F4A4
:10191000009407D077FD09D00E94710C07FC05D018
:101920003EF4909581959F4F0895709561957F4FF6
:101930000895A1E21A2EAA1BBB1BFD010DC0AA1F10
:10194000BB1FEE1FFF1FA217B307E407F50720F028
:10195000A21BB30BE40BF50B661F771F881F991FA3
:101960001A9469F760957095809590959B01AC01EC
:10197000BD01CF010895EE0FFF1F0590F491E02DFA
:1019800009940F931F93CF93DF938230910510F446
:1019900082E090E0E0915802F091590230E020E0BE
:1019A000B0E0A0E0309799F42115310509F44AC060
:1019B000281B390B24303105D8F58A819B816115AC
:1019C000710589F1FB0193838283FE0111C040817F
:1019D00051810281138148175907E0F048175907D0
:1019E00099F4109761F012960C93129713961C932A
:1019F0003296CF01DF91CF911F910F9108950093FF
:101A0000580210935902F4CF2115310551F04217B5
:101A1000530738F0A901DB019A01BD01DF01F8018C
:101A2000C1CFEF01F9CF9093590280935802CDCFE7
:101A3000FE01E20FF31F8193919322503109398304
:101A40002883D7CF2091560230915702232B41F49F
:101A500020910401309105013093570220935602E2
:101A600020910201309103012115310541F42DB778
:101A70003EB74091060150910701241B350BE091C0
:101A80005602F0915702E217F307A0F42E1B3F0B0A
:101A90002817390778F0AC014E5F5F4F24173507E0
:101AA00048F04E0F5F1F50935702409356028193A8
:101AB00091939FCFF0E0E0E09CCFCF93DF9300972E
:101AC000E9F0FC01329713821282A0915802B09182
:101AD0005902ED0130E020E01097A1F4208131811E
:101AE000820F931F20915602309157022817390711
:101AF00009F061C0F0935702E0935602DF91CF9155
:101B00000895EA01CE17DF07E8F54A815B819E015F
:101B100041155105B1F7E901FB83EA8349915991D8
:101B2000C40FD51FEC17FD0761F4808191810296E7
:101B3000840F951FE90199838883828193819B8318
:101B40008A83F0E0E0E012968D919C9113970097C4
:101B5000B9F52D913C911197CD010296820F931FFB
:101B600020915602309157022817390739F63097DD
:101B700051F51092590210925802B0935702A09357
:101B80005602BCCFD383C28340815181840F951FFD
:101B9000C817D90761F44E5F5F4F88819981480F5C
:101BA000591F518340838A819B81938382832115AE
:101BB000310509F0B0CFF0935902E09358029ECF5F
:101BC000FD01DC01C0CF13821282D7CFF894FFCF82
:101BD000080000005A028000000040001400540079
:101BE00000000000BD039003000466038903760330
:101BF00067030000000087069E000004D3015363C2
:101C0000686F6F6C2042656C6C00525443206E6F9D
:101C10007420666F756E6400525443206C6F737449
:101C200020706F7765720054696D653A20005365C6
:101C3000742054696D653A0042656C6C2061743A99
:021C4000200082
:107E0000112484B714BE81FFF0D085E080938100F7
:107E100082E08093C00088E18093C10086E0809377
:107E2000C20080E18093C4008EE0C9D0259A86E02C
:107E300020E33CEF91E0309385002093840096BBD3
:107E4000B09BFECF1D9AA8958150A9F7CC24DD24C4
:107E500088248394B5E0AB2EA1E19A2EF3E0BF2EE7
:107E6000A2D0813461F49FD0082FAFD0023811F036
:107E7000013811F484E001C083E08DD089C08234E0
:107E800011F484E103C0853419F485E0A6D080C0E4
:107E9000853579F488D0E82EFF2485D0082F10E0AE
:107EA000102F00270E291F29000F111F8ED06801E7
:107EB0006FC0863521F484E090D080E0DECF843638
:107EC00009F040C070D06FD0082F6DD080E0C81688
:107ED00080E7D80618F4F601B7BEE895C0E0D1E017
:107EE00062D089930C17E1F7F0E0CF16F0E7DF06D8
:107EF00018F0F601B7BEE89568D007B600FCFDCFD4
:107F0000A601A0E0B1E02C9130E011968C91119780
:107F100090E0982F8827822B932B1296FA010C0160
:107F200087BEE89511244E5F5F4FF1E0A038BF0790
:107F300051F7F601A7BEE89507B600FCFDCF97BE46
:107F4000E89526C08437B1F42ED02DD0F82E2BD052
:107F50003CD0F601EF2C8F010F5F1F4F84911BD097
:107F6000EA94F801C1F70894C11CD11CFA94CF0C13
:107F7000D11C0EC0853739F428D08EE10CD085E9AC
:107F80000AD08FE07ACF813511F488E018D01DD067
:107F900080E101D065CF982F8091C00085FFFCCF94
:107FA0009093C60008958091C00087FFFCCF809118
:107FB000C00084FD01C0A8958091C6000895E0E648
:107FC000F0E098E1908380830895EDDF803219F02E
:107FD00088E0F5DFFFCF84E1DECF1F93182FE3DFCA
:107FE0001150E9F7F2DF1F91089580E0E8DFEE27F6
:047FF000FF270994CA
:027FFE00040479
:00000001FF
